{
  "contractName": "BatteryNFT",
  "abi": [
    {
      "inputs": [
        {
          "internalType": "string",
          "name": "_name",
          "type": "string"
        },
        {
          "internalType": "string",
          "name": "_symbol",
          "type": "string"
        }
      ],
      "stateMutability": "nonpayable",
      "type": "constructor"
    },
    {
      "anonymous": false,
      "inputs": [
        {
          "indexed": true,
          "internalType": "address",
          "name": "owner",
          "type": "address"
        },
        {
          "indexed": true,
          "internalType": "address",
          "name": "approved",
          "type": "address"
        },
        {
          "indexed": true,
          "internalType": "uint256",
          "name": "tokenId",
          "type": "uint256"
        }
      ],
      "name": "Approval",
      "type": "event"
    },
    {
      "anonymous": false,
      "inputs": [
        {
          "indexed": true,
          "internalType": "address",
          "name": "owner",
          "type": "address"
        },
        {
          "indexed": true,
          "internalType": "address",
          "name": "operator",
          "type": "address"
        },
        {
          "indexed": false,
          "internalType": "bool",
          "name": "approved",
          "type": "bool"
        }
      ],
      "name": "ApprovalForAll",
      "type": "event"
    },
    {
      "anonymous": false,
      "inputs": [
        {
          "indexed": true,
          "internalType": "address",
          "name": "from",
          "type": "address"
        },
        {
          "indexed": true,
          "internalType": "address",
          "name": "to",
          "type": "address"
        },
        {
          "indexed": true,
          "internalType": "uint256",
          "name": "tokenId",
          "type": "uint256"
        }
      ],
      "name": "Transfer",
      "type": "event"
    },
    {
      "inputs": [
        {
          "internalType": "address",
          "name": "to",
          "type": "address"
        },
        {
          "internalType": "uint256",
          "name": "tokenId",
          "type": "uint256"
        }
      ],
      "name": "approve",
      "outputs": [],
      "stateMutability": "nonpayable",
      "type": "function"
    },
    {
      "inputs": [
        {
          "internalType": "address",
          "name": "owner",
          "type": "address"
        }
      ],
      "name": "balanceOf",
      "outputs": [
        {
          "internalType": "uint256",
          "name": "",
          "type": "uint256"
        }
      ],
      "stateMutability": "view",
      "type": "function"
    },
    {
      "inputs": [],
      "name": "baseURI",
      "outputs": [
        {
          "internalType": "string",
          "name": "",
          "type": "string"
        }
      ],
      "stateMutability": "view",
      "type": "function"
    },
    {
      "inputs": [
        {
          "internalType": "uint256",
          "name": "tokenId",
          "type": "uint256"
        }
      ],
      "name": "getApproved",
      "outputs": [
        {
          "internalType": "address",
          "name": "",
          "type": "address"
        }
      ],
      "stateMutability": "view",
      "type": "function"
    },
    {
      "inputs": [
        {
          "internalType": "address",
          "name": "owner",
          "type": "address"
        },
        {
          "internalType": "address",
          "name": "operator",
          "type": "address"
        }
      ],
      "name": "isApprovedForAll",
      "outputs": [
        {
          "internalType": "bool",
          "name": "",
          "type": "bool"
        }
      ],
      "stateMutability": "view",
      "type": "function"
    },
    {
      "inputs": [],
      "name": "name",
      "outputs": [
        {
          "internalType": "string",
          "name": "",
          "type": "string"
        }
      ],
      "stateMutability": "view",
      "type": "function"
    },
    {
      "inputs": [
        {
          "internalType": "uint256",
          "name": "tokenId",
          "type": "uint256"
        }
      ],
      "name": "ownerOf",
      "outputs": [
        {
          "internalType": "address",
          "name": "",
          "type": "address"
        }
      ],
      "stateMutability": "view",
      "type": "function"
    },
    {
      "inputs": [
        {
          "internalType": "address",
          "name": "from",
          "type": "address"
        },
        {
          "internalType": "address",
          "name": "to",
          "type": "address"
        },
        {
          "internalType": "uint256",
          "name": "tokenId",
          "type": "uint256"
        }
      ],
      "name": "safeTransferFrom",
      "outputs": [],
      "stateMutability": "nonpayable",
      "type": "function"
    },
    {
      "inputs": [
        {
          "internalType": "address",
          "name": "from",
          "type": "address"
        },
        {
          "internalType": "address",
          "name": "to",
          "type": "address"
        },
        {
          "internalType": "uint256",
          "name": "tokenId",
          "type": "uint256"
        },
        {
          "internalType": "bytes",
          "name": "_data",
          "type": "bytes"
        }
      ],
      "name": "safeTransferFrom",
      "outputs": [],
      "stateMutability": "nonpayable",
      "type": "function"
    },
    {
      "inputs": [
        {
          "internalType": "address",
          "name": "operator",
          "type": "address"
        },
        {
          "internalType": "bool",
          "name": "approved",
          "type": "bool"
        }
      ],
      "name": "setApprovalForAll",
      "outputs": [],
      "stateMutability": "nonpayable",
      "type": "function"
    },
    {
      "inputs": [
        {
          "internalType": "bytes4",
          "name": "interfaceId",
          "type": "bytes4"
        }
      ],
      "name": "supportsInterface",
      "outputs": [
        {
          "internalType": "bool",
          "name": "",
          "type": "bool"
        }
      ],
      "stateMutability": "view",
      "type": "function"
    },
    {
      "inputs": [],
      "name": "symbol",
      "outputs": [
        {
          "internalType": "string",
          "name": "",
          "type": "string"
        }
      ],
      "stateMutability": "view",
      "type": "function"
    },
    {
      "inputs": [
        {
          "internalType": "uint256",
          "name": "index",
          "type": "uint256"
        }
      ],
      "name": "tokenByIndex",
      "outputs": [
        {
          "internalType": "uint256",
          "name": "",
          "type": "uint256"
        }
      ],
      "stateMutability": "view",
      "type": "function"
    },
    {
      "inputs": [
        {
          "internalType": "address",
          "name": "owner",
          "type": "address"
        },
        {
          "internalType": "uint256",
          "name": "index",
          "type": "uint256"
        }
      ],
      "name": "tokenOfOwnerByIndex",
      "outputs": [
        {
          "internalType": "uint256",
          "name": "",
          "type": "uint256"
        }
      ],
      "stateMutability": "view",
      "type": "function"
    },
    {
      "inputs": [
        {
          "internalType": "uint256",
          "name": "tokenId",
          "type": "uint256"
        }
      ],
      "name": "tokenURI",
      "outputs": [
        {
          "internalType": "string",
          "name": "",
          "type": "string"
        }
      ],
      "stateMutability": "view",
      "type": "function"
    },
    {
      "inputs": [],
      "name": "totalSupply",
      "outputs": [
        {
          "internalType": "uint256",
          "name": "",
          "type": "uint256"
        }
      ],
      "stateMutability": "view",
      "type": "function"
    },
    {
      "inputs": [
        {
          "internalType": "address",
          "name": "from",
          "type": "address"
        },
        {
          "internalType": "address",
          "name": "to",
          "type": "address"
        },
        {
          "internalType": "uint256",
          "name": "tokenId",
          "type": "uint256"
        }
      ],
      "name": "transferFrom",
      "outputs": [],
      "stateMutability": "nonpayable",
      "type": "function"
    },
    {
      "inputs": [
        {
          "internalType": "address",
          "name": "_to",
          "type": "address"
        },
        {
          "internalType": "uint256",
          "name": "_tokenId",
          "type": "uint256"
        },
        {
          "internalType": "string",
          "name": "_tokenURI",
          "type": "string"
        },
        {
          "internalType": "string",
          "name": "_fileHash",
          "type": "string"
        },
        {
          "internalType": "string",
          "name": "_grade",
          "type": "string"
        },
        {
          "internalType": "string",
          "name": "_date",
          "type": "string"
        },
        {
          "internalType": "string",
          "name": "_org",
          "type": "string"
        }
      ],
      "name": "mintUniqueTokenTo",
      "outputs": [],
      "stateMutability": "nonpayable",
      "type": "function"
    },
    {
      "inputs": [
        {
          "internalType": "uint256",
          "name": "tokenId",
          "type": "uint256"
        }
      ],
      "name": "hashByToken",
      "outputs": [
        {
          "internalType": "string",
          "name": "",
          "type": "string"
        }
      ],
      "stateMutability": "view",
      "type": "function"
    },
    {
      "inputs": [
        {
          "internalType": "address",
          "name": "owner",
          "type": "address"
        }
      ],
      "name": "tokenByOwner",
      "outputs": [
        {
          "internalType": "uint256[]",
          "name": "",
          "type": "uint256[]"
        }
      ],
      "stateMutability": "view",
      "type": "function"
    },
    {
      "inputs": [
        {
          "internalType": "uint256",
          "name": "tokenId",
          "type": "uint256"
        }
      ],
      "name": "informationByToken",
      "outputs": [
        {
          "components": [
            {
              "internalType": "string",
              "name": "_hash",
              "type": "string"
            },
            {
              "internalType": "string",
              "name": "_grade",
              "type": "string"
            },
            {
              "internalType": "string",
              "name": "_date",
              "type": "string"
            },
            {
              "internalType": "string",
              "name": "_org",
              "type": "string"
            }
          ],
          "internalType": "struct BatteryNFT.Battery",
          "name": "",
          "type": "tuple"
        }
      ],
      "stateMutability": "view",
      "type": "function"
    }
  ],
  "bytecode": "0x60806040523480156200001157600080fd5b5060405162003b7038038062003b708339818101604052620000379190810190620002b8565b8181620000516301ffc9a760e01b620000d560201b60201c565b816006908051906020019062000069929190620001ad565b50806007908051906020019062000082929190620001ad565b506200009b6380ac58cd60e01b620000d560201b60201c565b620000b3635b5e139f60e01b620000d560201b60201c565b620000cb63780e9d6360e01b620000d560201b60201c565b5050505062000431565b63ffffffff60e01b817bffffffffffffffffffffffffffffffffffffffffffffffffffffffff1916141562000141576040517f08c379a000000000000000000000000000000000000000000000000000000000815260040162000138906200036d565b60405180910390fd5b6001600080837bffffffffffffffffffffffffffffffffffffffffffffffffffffffff19167bffffffffffffffffffffffffffffffffffffffffffffffffffffffff1916815260200190815260200160002060006101000a81548160ff02191690831515021790555050565b828054600181600116156101000203166002900490600052602060002090601f016020900481019282601f10620001f057805160ff191683800117855562000221565b8280016001018555821562000221579182015b828111156200022057825182559160200191906001019062000203565b5b50905062000230919062000234565b5090565b6200025991905b80821115620002555760008160009055506001016200023b565b5090565b90565b600082601f8301126200026e57600080fd5b8151620002856200027f82620003bd565b6200038f565b91508082526020830160208301858383011115620002a257600080fd5b620002af838284620003fb565b50505092915050565b60008060408385031215620002cc57600080fd5b600083015167ffffffffffffffff811115620002e757600080fd5b620002f5858286016200025c565b925050602083015167ffffffffffffffff8111156200031357600080fd5b62000321858286016200025c565b9150509250929050565b60006200033a601c83620003ea565b91507f4552433136353a20696e76616c696420696e74657266616365206964000000006000830152602082019050919050565b6000602082019050818103600083015262000388816200032b565b9050919050565b6000604051905081810181811067ffffffffffffffff82111715620003b357600080fd5b8060405250919050565b600067ffffffffffffffff821115620003d557600080fd5b601f19601f8301169050602081019050919050565b600082825260208201905092915050565b60005b838110156200041b578082015181840152602081019050620003fe565b838111156200042b576000848401525b50505050565b61372f80620004416000396000f3fe608060405234801561001057600080fd5b50600436106101375760003560e01c806362cd5200116100b8578063a22cb4651161007c578063a22cb46514610388578063a6f4abe4146103a4578063ab1f7781146103d4578063b88d4fde146103f0578063c87b56dd1461040c578063e985e9c51461043c57610137565b806362cd5200146102bc5780636352211e146102ec5780636c0360eb1461031c57806370a082311461033a57806395d89b411461036a57610137565b806323b872dd116100ff57806323b872dd146101f45780632db30fdd146102105780632f745c591461024057806342842e0e146102705780634f6ccce71461028c57610137565b806301ffc9a71461013c57806306fdde031461016c578063081812fc1461018a578063095ea7b3146101ba57806318160ddd146101d6575b600080fd5b61015660048036036101519190810190612751565b61046c565b6040516101639190613192565b60405180910390f35b6101746104d3565b60405161018191906131ad565b60405180910390f35b6101a4600480360361019f91908101906127a3565b610575565b6040516101b19190613109565b60405180910390f35b6101d460048036036101cf91908101906125ff565b6105fa565b005b6101de610712565b6040516101eb9190613411565b60405180910390f35b61020e600480360361020991908101906124f9565b610723565b005b61022a600480360361022591908101906127a3565b610783565b60405161023791906133ef565b60405180910390f35b61025a600480360361025591908101906125ff565b610a38565b6040516102679190613411565b60405180910390f35b61028a600480360361028591908101906124f9565b610a93565b005b6102a660048036036102a191908101906127a3565b610ab3565b6040516102b39190613411565b60405180910390f35b6102d660048036036102d19190810190612494565b610ad6565b6040516102e39190613170565b60405180910390f35b610306600480360361030191908101906127a3565b610b61565b6040516103139190613109565b60405180910390f35b610324610b98565b60405161033191906131ad565b60405180910390f35b610354600480360361034f9190810190612494565b610c3a565b6040516103619190613411565b60405180910390f35b610372610cf9565b60405161037f91906131ad565b60405180910390f35b6103a2600480360361039d91908101906125c3565b610d9b565b005b6103be60048036036103b991908101906127a3565b610f1c565b6040516103cb91906131ad565b60405180910390f35b6103ee60048036036103e9919081019061263b565b611022565b005b61040a60048036036104059190810190612548565b6110eb565b005b610426600480360361042191908101906127a3565b61114d565b60405161043391906131ad565b60405180910390f35b610456600480360361045191908101906124bd565b6112d8565b6040516104639190613192565b60405180910390f35b6000806000837bffffffffffffffffffffffffffffffffffffffffffffffffffffffff19167bffffffffffffffffffffffffffffffffffffffffffffffffffffffff1916815260200190815260200160002060009054906101000a900460ff169050919050565b606060068054600181600116156101000203166002900480601f01602080910402602001604051908101604052809291908181526020018280546001816001161561010002031660029004801561056b5780601f106105405761010080835404028352916020019161056b565b820191906000526020600020905b81548152906001019060200180831161054e57829003601f168201915b5050505050905090565b60006105808261136c565b6105bf576040517f08c379a00000000000000000000000000000000000000000000000000000000081526004016105b69061330f565b60405180910390fd5b6004600083815260200190815260200160002060009054906101000a900473ffffffffffffffffffffffffffffffffffffffff169050919050565b600061060582610b61565b90508073ffffffffffffffffffffffffffffffffffffffff168373ffffffffffffffffffffffffffffffffffffffff161415610676576040517f08c379a000000000000000000000000000000000000000000000000000000000815260040161066d9061338f565b60405180910390fd5b8073ffffffffffffffffffffffffffffffffffffffff16610695611389565b73ffffffffffffffffffffffffffffffffffffffff1614806106c457506106c3816106be611389565b6112d8565b5b610703576040517f08c379a00000000000000000000000000000000000000000000000000000000081526004016106fa9061328f565b60405180910390fd5b61070d8383611391565b505050565b600061071e600261144a565b905090565b61073461072e611389565b8261145f565b610773576040517f08c379a000000000000000000000000000000000000000000000000000000000815260040161076a906133af565b60405180910390fd5b61077e83838361153d565b505050565b61078b6122b6565b600a6000838152602001908152602001600020604051806080016040529081600082018054600181600116156101000203166002900480601f0160208091040260200160405190810160405280929190818152602001828054600181600116156101000203166002900480156108425780601f1061081757610100808354040283529160200191610842565b820191906000526020600020905b81548152906001019060200180831161082557829003601f168201915b50505050508152602001600182018054600181600116156101000203166002900480601f0160208091040260200160405190810160405280929190818152602001828054600181600116156101000203166002900480156108e45780601f106108b9576101008083540402835291602001916108e4565b820191906000526020600020905b8154815290600101906020018083116108c757829003601f168201915b50505050508152602001600282018054600181600116156101000203166002900480601f0160208091040260200160405190810160405280929190818152602001828054600181600116156101000203166002900480156109865780601f1061095b57610100808354040283529160200191610986565b820191906000526020600020905b81548152906001019060200180831161096957829003601f168201915b50505050508152602001600382018054600181600116156101000203166002900480601f016020809104026020016040519081016040528092919081815260200182805460018160011615610100020316600290048015610a285780601f106109fd57610100808354040283529160200191610a28565b820191906000526020600020905b815481529060010190602001808311610a0b57829003601f168201915b5050505050815250509050919050565b6000610a8b82600160008673ffffffffffffffffffffffffffffffffffffffff1673ffffffffffffffffffffffffffffffffffffffff16815260200190815260200160002061175490919063ffffffff16565b905092915050565b610aae838383604051806020016040528060008152506110eb565b505050565b600080610aca83600261176e90919063ffffffff16565b50905080915050919050565b60606000610ae383610c3a565b9050606081604051908082528060200260200182016040528015610b165781602001602082028038833980820191505090505b50905060008090505b82811015610b5657610b318582610a38565b828281518110610b3d57fe5b6020026020010181815250508080600101915050610b1f565b508092505050919050565b6000610b91826040518060600160405280602981526020016136d160299139600261179d9092919063ffffffff16565b9050919050565b606060098054600181600116156101000203166002900480601f016020809104026020016040519081016040528092919081815260200182805460018160011615610100020316600290048015610c305780601f10610c0557610100808354040283529160200191610c30565b820191906000526020600020905b815481529060010190602001808311610c1357829003601f168201915b5050505050905090565b60008073ffffffffffffffffffffffffffffffffffffffff168273ffffffffffffffffffffffffffffffffffffffff161415610cab576040517f08c379a0000000000000000000000000000000000000000000000000000000008152600401610ca2906132af565b60405180910390fd5b610cf2600160008473ffffffffffffffffffffffffffffffffffffffff1673ffffffffffffffffffffffffffffffffffffffff1681526020019081526020016000206117bc565b9050919050565b606060078054600181600116156101000203166002900480601f016020809104026020016040519081016040528092919081815260200182805460018160011615610100020316600290048015610d915780601f10610d6657610100808354040283529160200191610d91565b820191906000526020600020905b815481529060010190602001808311610d7457829003601f168201915b5050505050905090565b610da3611389565b73ffffffffffffffffffffffffffffffffffffffff168273ffffffffffffffffffffffffffffffffffffffff161415610e11576040517f08c379a0000000000000000000000000000000000000000000000000000000008152600401610e089061324f565b60405180910390fd5b8060056000610e1e611389565b73ffffffffffffffffffffffffffffffffffffffff1673ffffffffffffffffffffffffffffffffffffffff16815260200190815260200160002060008473ffffffffffffffffffffffffffffffffffffffff1673ffffffffffffffffffffffffffffffffffffffff16815260200190815260200160002060006101000a81548160ff0219169083151502179055508173ffffffffffffffffffffffffffffffffffffffff16610ecb611389565b73ffffffffffffffffffffffffffffffffffffffff167f17307eab39ab6107e8899845ad3d59bd9653f200f220920489ca2b5937696c3183604051610f109190613192565b60405180910390a35050565b6060610f278261136c565b610f66576040517f08c379a0000000000000000000000000000000000000000000000000000000008152600401610f5d9061330f565b60405180910390fd5b6060600a60008481526020019081526020016000206000018054600181600116156101000203166002900480601f0160208091040260200160405190810160405280929190818152602001828054600181600116156101000203166002900480156110125780601f10610fe757610100808354040283529160200191611012565b820191906000526020600020905b815481529060010190602001808311610ff557829003601f168201915b5050505050905080915050919050565b61102c87876117d1565b611036868661195f565b83600a600088815260200190815260200160002060000190805190602001906110609291906122de565b5082600a6000888152602001908152602001600020600101908051906020019061108b9291906122de565b5081600a600088815260200190815260200160002060020190805190602001906110b69291906122de565b5080600a600088815260200190815260200160002060030190805190602001906110e19291906122de565b5050505050505050565b6110fc6110f6611389565b8361145f565b61113b576040517f08c379a0000000000000000000000000000000000000000000000000000000008152600401611132906133af565b60405180910390fd5b611147848484846119d3565b50505050565b60606111588261136c565b611197576040517f08c379a000000000000000000000000000000000000000000000000000000000815260040161118e9061336f565b60405180910390fd5b6060600860008481526020019081526020016000208054600181600116156101000203166002900480601f0160208091040260200160405190810160405280929190818152602001828054600181600116156101000203166002900480156112405780601f1061121557610100808354040283529160200191611240565b820191906000526020600020905b81548152906001019060200180831161122357829003601f168201915b5050505050905060006009805460018160011615610100020316600290049050141561126f57809150506112d3565b6000815111156112a45760098160405160200161128d9291906130e5565b6040516020818303038152906040529150506112d3565b60096112af84611a2f565b6040516020016112c09291906130e5565b6040516020818303038152906040529150505b919050565b6000600560008473ffffffffffffffffffffffffffffffffffffffff1673ffffffffffffffffffffffffffffffffffffffff16815260200190815260200160002060008373ffffffffffffffffffffffffffffffffffffffff1673ffffffffffffffffffffffffffffffffffffffff16815260200190815260200160002060009054906101000a900460ff16905092915050565b6000611382826002611b5f90919063ffffffff16565b9050919050565b600033905090565b816004600083815260200190815260200160002060006101000a81548173ffffffffffffffffffffffffffffffffffffffff021916908373ffffffffffffffffffffffffffffffffffffffff160217905550808273ffffffffffffffffffffffffffffffffffffffff1661140483610b61565b73ffffffffffffffffffffffffffffffffffffffff167f8c5be1e5ebec7d5bd14f71427d1e84f3dd0314c0f7b2291e5b200ac8c7c3b92560405160405180910390a45050565b600061145882600001611b79565b9050919050565b600061146a8261136c565b6114a9576040517f08c379a00000000000000000000000000000000000000000000000000000000081526004016114a09061326f565b60405180910390fd5b60006114b483610b61565b90508073ffffffffffffffffffffffffffffffffffffffff168473ffffffffffffffffffffffffffffffffffffffff16148061152357508373ffffffffffffffffffffffffffffffffffffffff1661150b84610575565b73ffffffffffffffffffffffffffffffffffffffff16145b80611534575061153381856112d8565b5b91505092915050565b8273ffffffffffffffffffffffffffffffffffffffff1661155d82610b61565b73ffffffffffffffffffffffffffffffffffffffff16146115b3576040517f08c379a00000000000000000000000000000000000000000000000000000000081526004016115aa9061334f565b60405180910390fd5b600073ffffffffffffffffffffffffffffffffffffffff168273ffffffffffffffffffffffffffffffffffffffff161415611623576040517f08c379a000000000000000000000000000000000000000000000000000000000815260040161161a9061322f565b60405180910390fd5b61162e838383611b8a565b611639600082611391565b61168a81600160008673ffffffffffffffffffffffffffffffffffffffff1673ffffffffffffffffffffffffffffffffffffffff168152602001908152602001600020611b8f90919063ffffffff16565b506116dc81600160008573ffffffffffffffffffffffffffffffffffffffff1673ffffffffffffffffffffffffffffffffffffffff168152602001908152602001600020611ba990919063ffffffff16565b506116f381836002611bc39092919063ffffffff16565b50808273ffffffffffffffffffffffffffffffffffffffff168473ffffffffffffffffffffffffffffffffffffffff167fddf252ad1be2c89b69c2b068fc378daa952ba7f163c4a11628f55a4df523b3ef60405160405180910390a4505050565b60006117638360000183611bf8565b60001c905092915050565b6000806000806117818660000186611c65565b915091508160001c8160001c8090509350935050509250929050565b60006117b0846000018460001b84611ce8565b60001c90509392505050565b60006117ca82600001611d79565b9050919050565b600073ffffffffffffffffffffffffffffffffffffffff168273ffffffffffffffffffffffffffffffffffffffff161415611841576040517f08c379a0000000000000000000000000000000000000000000000000000000008152600401611838906132ef565b60405180910390fd5b61184a8161136c565b1561188a576040517f08c379a00000000000000000000000000000000000000000000000000000000081526004016118819061320f565b60405180910390fd5b61189660008383611b8a565b6118e781600160008573ffffffffffffffffffffffffffffffffffffffff1673ffffffffffffffffffffffffffffffffffffffff168152602001908152602001600020611ba990919063ffffffff16565b506118fe81836002611bc39092919063ffffffff16565b50808273ffffffffffffffffffffffffffffffffffffffff16600073ffffffffffffffffffffffffffffffffffffffff167fddf252ad1be2c89b69c2b068fc378daa952ba7f163c4a11628f55a4df523b3ef60405160405180910390a45050565b6119688261136c565b6119a7576040517f08c379a000000000000000000000000000000000000000000000000000000000815260040161199e9061332f565b60405180910390fd5b806008600084815260200190815260200160002090805190602001906119ce9291906122de565b505050565b6119de84848461153d565b6119ea84848484611d8a565b611a29576040517f08c379a0000000000000000000000000000000000000000000000000000000008152600401611a20906131ef565b60405180910390fd5b50505050565b60606000821415611a77576040518060400160405280600181526020017f30000000000000000000000000000000000000000000000000000000000000008152509050611b5a565b600082905060005b60008214611aa1578080600101915050600a8281611a9957fe5b049150611a7f565b6060816040519080825280601f01601f191660200182016040528015611ad65781602001600182028038833980820191505090505b50905060006001830390508593505b60008414611b5257600a8481611af757fe5b0660300160f81b82828060019003935081518110611b1157fe5b60200101907effffffffffffffffffffffffffffffffffffffffffffffffffffffffffffff1916908160001a905350600a8481611b4a57fe5b049350611ae5565b819450505050505b919050565b6000611b71836000018360001b611eee565b905092915050565b600081600001805490509050919050565b505050565b6000611ba1836000018360001b611f11565b905092915050565b6000611bbb836000018360001b611ff9565b905092915050565b6000611bef846000018460001b8473ffffffffffffffffffffffffffffffffffffffff1660001b612069565b90509392505050565b600081836000018054905011611c43576040517f08c379a0000000000000000000000000000000000000000000000000000000008152600401611c3a906131cf565b60405180910390fd5b826000018281548110611c5257fe5b9060005260206000200154905092915050565b60008082846000018054905011611cb1576040517f08c379a0000000000000000000000000000000000000000000000000000000008152600401611ca8906132cf565b60405180910390fd5b6000846000018481548110611cc257fe5b906000526020600020906002020190508060000154816001015492509250509250929050565b60008084600101600085815260200190815260200160002054905060008114158390611d4a576040517f08c379a0000000000000000000000000000000000000000000000000000000008152600401611d4191906131ad565b60405180910390fd5b50846000016001820381548110611d5d57fe5b9060005260206000209060020201600101549150509392505050565b600081600001805490509050919050565b6000611dab8473ffffffffffffffffffffffffffffffffffffffff16612145565b611db85760019050611ee6565b6060611e7f63150b7a0260e01b611dcd611389565b888787604051602401611de39493929190613124565b604051602081830303815290604052907bffffffffffffffffffffffffffffffffffffffffffffffffffffffff19166020820180517bffffffffffffffffffffffffffffffffffffffffffffffffffffffff838183161783525050505060405180606001604052806032815260200161369f603291398773ffffffffffffffffffffffffffffffffffffffff166121589092919063ffffffff16565b9050600081806020019051611e97919081019061277a565b905063150b7a0260e01b7bffffffffffffffffffffffffffffffffffffffffffffffffffffffff1916817bffffffffffffffffffffffffffffffffffffffffffffffffffffffff191614925050505b949350505050565b600080836001016000848152602001908152602001600020541415905092915050565b60008083600101600084815260200190815260200160002054905060008114611fed5760006001820390506000600186600001805490500390506000866000018281548110611f5c57fe5b9060005260206000200154905080876000018481548110611f7957fe5b9060005260206000200181905550600183018760010160008381526020019081526020016000208190555086600001805480611fb157fe5b60019003818190600052602060002001600090559055866001016000878152602001908152602001600020600090556001945050505050611ff3565b60009150505b92915050565b60006120058383612170565b61205e578260000182908060018154018082558091505060019003906000526020600020016000909190919091505582600001805490508360010160008481526020019081526020016000208190555060019050612063565b600090505b92915050565b60008084600101600085815260200190815260200160002054905060008114156121105784600001604051806040016040528086815260200185815250908060018154018082558091505060019003906000526020600020906002020160009091909190915060008201518160000155602082015181600101555050846000018054905085600101600086815260200190815260200160002081905550600191505061213e565b8285600001600183038154811061212357fe5b90600052602060002090600202016001018190555060009150505b9392505050565b600080823b905060008111915050919050565b60606121678484600085612193565b90509392505050565b600080836001016000848152602001908152602001600020541415905092915050565b606061219e85612145565b6121dd576040517f08c379a00000000000000000000000000000000000000000000000000000000081526004016121d4906133cf565b60405180910390fd5b600060608673ffffffffffffffffffffffffffffffffffffffff16858760405161220791906130ce565b60006040518083038185875af1925050503d8060008114612244576040519150601f19603f3d011682016040523d82523d6000602084013e612249565b606091505b5091509150811561225e5780925050506122ae565b6000815111156122715780518082602001fd5b836040517f08c379a00000000000000000000000000000000000000000000000000000000081526004016122a591906131ad565b60405180910390fd5b949350505050565b6040518060800160405280606081526020016060815260200160608152602001606081525090565b828054600181600116156101000203166002900490600052602060002090601f016020900481019282601f1061231f57805160ff191683800117855561234d565b8280016001018555821561234d579182015b8281111561234c578251825591602001919060010190612331565b5b50905061235a919061235e565b5090565b61238091905b8082111561237c576000816000905550600101612364565b5090565b90565b60008135905061239281613642565b92915050565b6000813590506123a781613659565b92915050565b6000813590506123bc81613670565b92915050565b6000815190506123d181613670565b92915050565b600082601f8301126123e857600080fd5b81356123fb6123f682613459565b61342c565b9150808252602083016020830185838301111561241757600080fd5b6124228382846135ef565b50505092915050565b600082601f83011261243c57600080fd5b813561244f61244a82613485565b61342c565b9150808252602083016020830185838301111561246b57600080fd5b6124768382846135ef565b50505092915050565b60008135905061248e81613687565b92915050565b6000602082840312156124a657600080fd5b60006124b484828501612383565b91505092915050565b600080604083850312156124d057600080fd5b60006124de85828601612383565b92505060206124ef85828601612383565b9150509250929050565b60008060006060848603121561250e57600080fd5b600061251c86828701612383565b935050602061252d86828701612383565b925050604061253e8682870161247f565b9150509250925092565b6000806000806080858703121561255e57600080fd5b600061256c87828801612383565b945050602061257d87828801612383565b935050604061258e8782880161247f565b925050606085013567ffffffffffffffff8111156125ab57600080fd5b6125b7878288016123d7565b91505092959194509250565b600080604083850312156125d657600080fd5b60006125e485828601612383565b92505060206125f585828601612398565b9150509250929050565b6000806040838503121561261257600080fd5b600061262085828601612383565b92505060206126318582860161247f565b9150509250929050565b600080600080600080600060e0888a03121561265657600080fd5b60006126648a828b01612383565b97505060206126758a828b0161247f565b965050604088013567ffffffffffffffff81111561269257600080fd5b61269e8a828b0161242b565b955050606088013567ffffffffffffffff8111156126bb57600080fd5b6126c78a828b0161242b565b945050608088013567ffffffffffffffff8111156126e457600080fd5b6126f08a828b0161242b565b93505060a088013567ffffffffffffffff81111561270d57600080fd5b6127198a828b0161242b565b92505060c088013567ffffffffffffffff81111561273657600080fd5b6127428a828b0161242b565b91505092959891949750929550565b60006020828403121561276357600080fd5b6000612771848285016123ad565b91505092915050565b60006020828403121561278c57600080fd5b600061279a848285016123c2565b91505092915050565b6000602082840312156127b557600080fd5b60006127c38482850161247f565b91505092915050565b60006127d883836130b0565b60208301905092915050565b6127ed8161357b565b82525050565b6127fc81613569565b82525050565b600061280d826134d6565b612817818561350f565b9350612822836134b1565b8060005b8381101561285357815161283a88826127cc565b975061284583613502565b925050600181019050612826565b5085935050505092915050565b6128698161358d565b82525050565b600061287a826134e1565b6128848185613520565b93506128948185602086016135fe565b61289d81613631565b840191505092915050565b60006128b3826134e1565b6128bd8185613531565b93506128cd8185602086016135fe565b80840191505092915050565b60006128e4826134f7565b6128ee818561354d565b93506128fe8185602086016135fe565b61290781613631565b840191505092915050565b600061291d826134f7565b612927818561355e565b93506129378185602086016135fe565b80840191505092915050565b600061294e826134ec565b612958818561353c565b93506129688185602086016135fe565b61297181613631565b840191505092915050565b60008154600181166000811461299957600181146129be57612a02565b607f60028304166129aa818761355e565b955060ff1983168652808601935050612a02565b600282046129cc818761355e565b95506129d7856134c1565b60005b828110156129f9578154818901526001820191506020810190506129da565b82880195505050505b505092915050565b6000612a1760228361354d565b91507f456e756d657261626c655365743a20696e646578206f7574206f6620626f756e60008301527f64730000000000000000000000000000000000000000000000000000000000006020830152604082019050919050565b6000612a7d60328361354d565b91507f4552433732313a207472616e7366657220746f206e6f6e20455243373231526560008301527f63656976657220696d706c656d656e74657200000000000000000000000000006020830152604082019050919050565b6000612ae3601c8361354d565b91507f4552433732313a20746f6b656e20616c7265616479206d696e746564000000006000830152602082019050919050565b6000612b2360248361354d565b91507f4552433732313a207472616e7366657220746f20746865207a65726f2061646460008301527f72657373000000000000000000000000000000000000000000000000000000006020830152604082019050919050565b6000612b8960198361354d565b91507f4552433732313a20617070726f766520746f2063616c6c6572000000000000006000830152602082019050919050565b6000612bc9602c8361354d565b91507f4552433732313a206f70657261746f7220717565727920666f72206e6f6e657860008301527f697374656e7420746f6b656e00000000000000000000000000000000000000006020830152604082019050919050565b6000612c2f60388361354d565b91507f4552433732313a20617070726f76652063616c6c6572206973206e6f74206f7760008301527f6e6572206e6f7220617070726f76656420666f7220616c6c00000000000000006020830152604082019050919050565b6000612c95602a8361354d565b91507f4552433732313a2062616c616e636520717565727920666f7220746865207a6560008301527f726f2061646472657373000000000000000000000000000000000000000000006020830152604082019050919050565b6000612cfb60228361354d565b91507f456e756d657261626c654d61703a20696e646578206f7574206f6620626f756e60008301527f64730000000000000000000000000000000000000000000000000000000000006020830152604082019050919050565b6000612d6160208361354d565b91507f4552433732313a206d696e7420746f20746865207a65726f20616464726573736000830152602082019050919050565b6000612da1602c8361354d565b91507f4552433732313a20617070726f76656420717565727920666f72206e6f6e657860008301527f697374656e7420746f6b656e00000000000000000000000000000000000000006020830152604082019050919050565b6000612e07602c8361354d565b91507f4552433732314d657461646174613a2055524920736574206f66206e6f6e657860008301527f697374656e7420746f6b656e00000000000000000000000000000000000000006020830152604082019050919050565b6000612e6d60298361354d565b91507f4552433732313a207472616e73666572206f6620746f6b656e2074686174206960008301527f73206e6f74206f776e00000000000000000000000000000000000000000000006020830152604082019050919050565b6000612ed3602f8361354d565b91507f4552433732314d657461646174613a2055524920717565727920666f72206e6f60008301527f6e6578697374656e7420746f6b656e00000000000000000000000000000000006020830152604082019050919050565b6000612f3960218361354d565b91507f4552433732313a20617070726f76616c20746f2063757272656e74206f776e6560008301527f72000000000000000000000000000000000000000000000000000000000000006020830152604082019050919050565b6000612f9f60318361354d565b91507f4552433732313a207472616e736665722063616c6c6572206973206e6f74206f60008301527f776e6572206e6f7220617070726f7665640000000000000000000000000000006020830152604082019050919050565b6000613005601d8361354d565b91507f416464726573733a2063616c6c20746f206e6f6e2d636f6e74726163740000006000830152602082019050919050565b600060808301600083015184820360008601526130558282612943565b9150506020830151848203602086015261306f8282612943565b915050604083015184820360408601526130898282612943565b915050606083015184820360608601526130a38282612943565b9150508091505092915050565b6130b9816135e5565b82525050565b6130c8816135e5565b82525050565b60006130da82846128a8565b915081905092915050565b60006130f1828561297c565b91506130fd8284612912565b91508190509392505050565b600060208201905061311e60008301846127f3565b92915050565b600060808201905061313960008301876127e4565b61314660208301866127f3565b61315360408301856130bf565b8181036060830152613165818461286f565b905095945050505050565b6000602082019050818103600083015261318a8184612802565b905092915050565b60006020820190506131a76000830184612860565b92915050565b600060208201905081810360008301526131c781846128d9565b905092915050565b600060208201905081810360008301526131e881612a0a565b9050919050565b6000602082019050818103600083015261320881612a70565b9050919050565b6000602082019050818103600083015261322881612ad6565b9050919050565b6000602082019050818103600083015261324881612b16565b9050919050565b6000602082019050818103600083015261326881612b7c565b9050919050565b6000602082019050818103600083015261328881612bbc565b9050919050565b600060208201905081810360008301526132a881612c22565b9050919050565b600060208201905081810360008301526132c881612c88565b9050919050565b600060208201905081810360008301526132e881612cee565b9050919050565b6000602082019050818103600083015261330881612d54565b9050919050565b6000602082019050818103600083015261332881612d94565b9050919050565b6000602082019050818103600083015261334881612dfa565b9050919050565b6000602082019050818103600083015261336881612e60565b9050919050565b6000602082019050818103600083015261338881612ec6565b9050919050565b600060208201905081810360008301526133a881612f2c565b9050919050565b600060208201905081810360008301526133c881612f92565b9050919050565b600060208201905081810360008301526133e881612ff8565b9050919050565b600060208201905081810360008301526134098184613038565b905092915050565b600060208201905061342660008301846130bf565b92915050565b6000604051905081810181811067ffffffffffffffff8211171561344f57600080fd5b8060405250919050565b600067ffffffffffffffff82111561347057600080fd5b601f19601f8301169050602081019050919050565b600067ffffffffffffffff82111561349c57600080fd5b601f19601f8301169050602081019050919050565b6000819050602082019050919050565b60008190508160005260206000209050919050565b600081519050919050565b600081519050919050565b600081519050919050565b600081519050919050565b6000602082019050919050565b600082825260208201905092915050565b600082825260208201905092915050565b600081905092915050565b600082825260208201905092915050565b600082825260208201905092915050565b600081905092915050565b6000613574826135c5565b9050919050565b6000613586826135c5565b9050919050565b60008115159050919050565b60007fffffffff0000000000000000000000000000000000000000000000000000000082169050919050565b600073ffffffffffffffffffffffffffffffffffffffff82169050919050565b6000819050919050565b82818337600083830152505050565b60005b8381101561361c578082015181840152602081019050613601565b8381111561362b576000848401525b50505050565b6000601f19601f8301169050919050565b61364b81613569565b811461365657600080fd5b50565b6136628161358d565b811461366d57600080fd5b50565b61367981613599565b811461368457600080fd5b50565b613690816135e5565b811461369b57600080fd5b5056fe4552433732313a207472616e7366657220746f206e6f6e20455243373231526563656976657220696d706c656d656e7465724552433732313a206f776e657220717565727920666f72206e6f6e6578697374656e7420746f6b656ea2646970667358221220b532c407caca88d95f22db26c78edd3ad59a4d6138bbbeb0be13f718b1aa93d964736f6c63430006020033",
  "source": "pragma solidity >0.4.23;\npragma experimental ABIEncoderV2;\n\nimport \"../node_modules/openzeppelin-solidity/contracts/token/ERC721/ERC721.sol\";\n\ncontract BatteryNFT is ERC721 {\n    constructor (string memory _name, string memory _symbol) public\n        ERC721(_name, _symbol)\n    {\n    }\n\n    struct Battery {\n        string _hash;\n        string _grade;\n        string _date;\n        string _org;\n    }\n\n    mapping (uint256 => Battery) internal _batteryMap;\n\n    /**\n    * Custom accessor to create a unique token\n    */\n    function mintUniqueTokenTo(\n        address _to,\n        uint256 _tokenId,\n        string memory  _tokenURI,\n        string memory  _fileHash,\n        string memory  _grade,\n        string memory  _date,\n        string memory  _org\n    ) public\n    {\n        super._mint(_to, _tokenId);\n        super._setTokenURI(_tokenId, _tokenURI);\n        _batteryMap[_tokenId]._hash = _fileHash;\n        _batteryMap[_tokenId]._grade = _grade;\n        _batteryMap[_tokenId]._date = _date;\n        _batteryMap[_tokenId]._org = _org;\n    }\n\n    function hashByToken(uint256 tokenId) public view returns (string memory) {\n        require(_exists(tokenId), \"ERC721: approved query for nonexistent token\");\n        string memory hash = _batteryMap[tokenId]._hash;\n        return hash;\n    }\n\n    function tokenByOwner(address owner) public view returns (uint256[] memory) {\n        uint count =  super.balanceOf(owner);\n        uint256[] memory memoryArray = new uint256[](count);\n        for(uint i = 0; i < count; i++) {\n            memoryArray[i] = tokenOfOwnerByIndex(owner,i);\n        }\n        return memoryArray;\n    }\n\n    function informationByToken(uint256 tokenId) public view returns (Battery memory) {\n        return _batteryMap[tokenId];\n    }\n}\n\n",
  "sourcePath": "/Users/sjin4you/Downloads/examples/erc721/contracts/BatteryNFT.sol",
  "compiler": {
    "name": "solc",
    "version": "0.6.2+commit.bacdbe57.Emscripten.clang"
  },
  "schemaVersion": "3.3.1",
  "updatedAt": "2020-11-14T15:12:42.637Z",
  "devdoc": {
    "methods": {
      "approve(address,uint256)": {
        "details": "See {IERC721-approve}."
      },
      "balanceOf(address)": {
        "details": "See {IERC721-balanceOf}."
      },
      "baseURI()": {
        "details": "Returns the base URI set via {_setBaseURI}. This will be automatically added as a prefix in {tokenURI} to each token's URI, or to the token ID if no specific URI is set for that token ID."
      },
      "getApproved(uint256)": {
        "details": "See {IERC721-getApproved}."
      },
      "isApprovedForAll(address,address)": {
        "details": "See {IERC721-isApprovedForAll}."
      },
      "name()": {
        "details": "See {IERC721Metadata-name}."
      },
      "ownerOf(uint256)": {
        "details": "See {IERC721-ownerOf}."
      },
      "safeTransferFrom(address,address,uint256)": {
        "details": "See {IERC721-safeTransferFrom}."
      },
      "safeTransferFrom(address,address,uint256,bytes)": {
        "details": "See {IERC721-safeTransferFrom}."
      },
      "setApprovalForAll(address,bool)": {
        "details": "See {IERC721-setApprovalForAll}."
      },
      "supportsInterface(bytes4)": {
        "details": "See {IERC165-supportsInterface}.     * Time complexity O(1), guaranteed to always use less than 30 000 gas."
      },
      "symbol()": {
        "details": "See {IERC721Metadata-symbol}."
      },
      "tokenByIndex(uint256)": {
        "details": "See {IERC721Enumerable-tokenByIndex}."
      },
      "tokenOfOwnerByIndex(address,uint256)": {
        "details": "See {IERC721Enumerable-tokenOfOwnerByIndex}."
      },
      "tokenURI(uint256)": {
        "details": "See {IERC721Metadata-tokenURI}."
      },
      "totalSupply()": {
        "details": "See {IERC721Enumerable-totalSupply}."
      },
      "transferFrom(address,address,uint256)": {
        "details": "See {IERC721-transferFrom}."
      }
    }
  },
  "userdoc": {
    "methods": {
      "mintUniqueTokenTo(address,uint256,string,string,string,string,string)": {
        "notice": "Custom accessor to create a unique token"
      }
    }
  }
}